{
  "data": {
    "hash": "0x9a4dda44ef58acae29ed2b63b225d60ed1227d7e7d2d8d64ad851d07825074af",
    "blockHash": "0x3621ff06a129ae4f69e09694f4f0dbe79aacab985c7a12eef8a7f6bf8e2df91e",
    "blockNumber": 9735660,
    "transactionIndex": 123,
    "confirmations": 1050,
    "from": "0xf2f01a4Ec8c0643e9fdc316Ed1C48e33cfDe116E",
    "gasPrice": { "_hex": "0x12a05f200" },
    "gasLimit": { "_hex": "0x5208" },
    "to": "0xa237E8C93104AC7Fc3c1DB3b7C230F19860A337f",
    "value": { "_hex": "0x38d7ea4c68000" },
    "nonce": 1,
    "data": "0x",
    "r": "0xf11597a3eb5b027629c2f4179bd9f9f63837a47886b028b75e26b983faa0b0aa",
    "s": "0x639d3061ecfa19549cc3fbee20e9613679c43ee9abeb2ede6cde585f76df851f",
    "v": 37,
    "creates": null,
    "raw": "0xf86b0185012a05f20082520894a237e8c93104ac7fc3c1db3b7c230f19860a337f87038d7ea4c680008025a0f11597a3eb5b027629c2f4179bd9f9f63837a47886b028b75e26b983faa0b0aaa0639d3061ecfa19549cc3fbee20e9613679c43ee9abeb2ede6cde585f76df851f",
    "networkId": 1,
    "chainId": 1
  }
}
