{
  "data": {
    "hash": "0x863058d7d73015ae9e3f8e165deb90f407e33b1533f8912324c44c01f54db9ab",
    "blockHash": "0xfd627d7ef035925239d300bbd685eb6d962723314e3f9578b8b5c7ee421eef5a",
    "blockNumber": 9735282,
    "transactionIndex": 82,
    "confirmations": 7,
    "from": "0xd06cd3D829E67AD3455D5035B071813625b0De6B",
    "gasPrice": { "_hex": "0x12a05f200" },
    "gasLimit": { "_hex": "0x15f90" },
    "to": "0xf57c4074D874948dbbaAd3a5559c887cD2F7D73B",
    "value": { "_hex": "0xf5904616e000" },
    "nonce": 24899,
    "data": "0x",
    "r": "0xea68ae8203d7561061d25a4124667f113e848816d53a9f93c750d871f231c284",
    "s": "0x18892a817de6c2a0972a6209c8d98ece1f91d18a5a84ba6cafdb3dca589d860e",
    "v": 27,
    "creates": null,
    "raw": "0xf86d82614385012a05f20083015f9094f57c4074d874948dbbaad3a5559c887cd2f7d73b86f5904616e000801ba0ea68ae8203d7561061d25a4124667f113e848816d53a9f93c750d871f231c284a018892a817de6c2a0972a6209c8d98ece1f91d18a5a84ba6cafdb3dca589d860e",
    "networkId": 0,
    "chainId": 0
  }
}
